S015000041697220436F6E646974696F6E2E737265632C
S11300000C942A000C9447000C9447000C94310182
S11300100C94B2060C94D9060C940A060C9431067E
S11300200C9458060C945E060C9464060C948B068F
S11300300C9447000C9447000C9447000C94470020
S11300400C9447000C9447000C9447000C94470010
S11300500C94470011241FBECFE5D8E0DEBFCDBF0E
S113006010E0A0E6B0E0EAE7F5E102C005900D92E9
S1130070AC39B107D9F720E0ACE9B0E001C01D927A
S1130080A93CB207E1F70E94D5030C94BB0A0C9477
S1130090000084B7806484BF8BB780628BBF87B352
S11300A0806C87BB7894089580E00E94EB03BC01C8
S11300B080E090E00E94270925EE3FEF4FE95BE3E3
S11300C00E94B5092AE037ED43E25CE30E9486080A
S11300D00E94F808862F0895CF93DF93009711F4B8
S11300E08FEF27C0AC0160E080E00E94A7034CE6DC
S11300F050E069E080E00E94A7036EE080E00E9487
S11301009403C4ECD0E0688170E080E090E00E9449
S1130110B20341E750E069E081E00E94A7036EE08A
S113012081E00E949403698170E080E090E00E9485
S1130130B203DF91CF9108950E94DA0161E083E078
S11301400E94DA030E94220345E750E065E081E063
S11301500E94A7030E9449002FEF89E698E12150ED
S113016080409040E1F700C000000E94D103089550
S1130170CF93DF9331C00E945400C4ECD0E0888355
S11301808DE790E00E946C0089818A3040F46FE032
S113019081E00E94940384E890E00E9435030E9469
S11301A09B0280939C00813019F0823061F012C070
S11301B08091C500882381F0E4ECF0E09FEF980F74
S11301C09183828309C0E4ECF0E081818F5F8183B5
S11301D0828302C010929C0080916000813059F2A9
S11301E081E00E94D60236C00E945400E4ECF0E0A4
S11301F080839181981728F060E084E00E942002B7
S113020015C0853658F046E850E06EE080E00E9464
S1130210A70364E682E00E94200208C0682F82E0FF
S11302200E942002E4ECF0E0808182838091C4008B
S1130230843620F489E890E00E946C008091C40028
S11302408A3040F46FE080E00E94940384E890E0F8
S11302500E94350380916000882331F2DF91CF91B1
S113026008951F920F920FB60F9211242F933F936C
S11302704F935F936F937F938F939F93AF93BF93AA
S1130280EF93FF9380916000811104C081E080931B
S1130290600002C01092600060E084E00E942002CE
S11302A098B380E4892788BBFF91EF91BF91AF9108
S11302B09F918F917F916F915F914F913F912F917A
S11302C00F900FBE0F901F901895EF92FF920F930F
S11302D01F93CF93DF93C82FD0E07E01EE0CFF1C59
S11302E087010C0F1D1F000F111F00571F4F40E007
S11302F0F8016481808191810E941504E80140E045
S11303006D818A819B810E941504DF91CF911F9199
S11303100F91FF90EF900895EF92FF920F931F9328
S1130320CF93DF93C82FD0E07E01EE0CFF1C870132
S11303300C0F1D1F000F111F00571F4F41E0F80144
S11303406481808191810E941504E80140E06D81FF
S11303508A819B810E941504DF91CF911F910F9197
S1130360FF90EF900895EF92FF920F931F93CF9316
S1130370DF93C82FD0E07E01EE0CFF1C87010C0F29
S11303801D1F000F111F00571F4F40E0F80164812B
S1130390808191810E941504E80141E06D818A8188
S11303A09B810E941504DF91CF911F910F91FF90C3
S11303B0EF9008951F93CF93DF9300D01F92CDB792
S11303C0DEB719821A821B8281E08A8342E650E0FA
S11303D060E180E390E00E947907811125C082E604
S11303E090E00E94E907811121C062E670E00E945A
S11303F0F10781111DC010E013C084E08983BE01A0
S11304006F5F7F4F80E390E00E94F80388E0898368
S1130410BE016F5F7F4F80E390E00E94F8031F5F8F
S1130420123058F380E005C083E003C083E001C0CC
S113043083E00F900F900F90DF91CF911F9108955B
S1130440CF9390919D00961305C0909161009817E9
S113045009F462C0C62F823071F130F48823E1F1CF
S1130460813009F449C058C08330A1F0843009F0C8
S113047053C080E00E94650181E00E94650184E030
S11304808093610010929D0062E670E080E00E941B
S1130490F10742C080E00E948C0181E00E948C013F
S11304A083E080936100C0939D0062E670E08C2F2E
S11304B00E94F10731C080E00E94B30181E00E94F4
S11304C0B30182E080936100C0939D0062E670E016
S11304D08C2F0E94F10720C080E00E94B30181E0CC
S11304E00E948C0110926100C0939D0062E670E04E
S11304F08C2F0E94F10710C080E00E948C0181E0E3
S11305000E94B30181E080936100C0939D0062E684
S113051070E08C2F0E94F10780E0CF9108958B301A
S113052041F08C3021F08A3029F48AE2089583E284
S1130530089580E0089584E636C020E230E0042E79
S113054002C0220F331F0A94E2F724BB209525BB77
S113055092E022C023B3692F70E030E0092E02C07C
S1130560359527950A94E2F720FD15C023B330E0B2
S1130570062E02C0359527950A94E2F720FFF6CFA0
S113058062507109862F880F680F862F840F8F5F42
S11305900E948F0208959F5F9530E0F24F5F01C083
S11305A040E0433050F28150D9F708959BB39D7FCA
S11305B09BBB9BB39B7F9BBBEFECF7E03197F1F7C1
S11305C000C000009BB398609BBBEFECF7E0319751
S11305D0F1F700C000009BB39F70282F207F922B5F
S11305E09BBBEFECF7E03197F1F700C000009BB341
S11305F0977F9BBBEFECF7E03197F1F700C0000069
S11306009BB398609BBBEFECF7E03197F1F700C028
S113061000002BB3F0E18F9FC0011124922F9F7033
S1130620892B8BBB8FEC97E00197F1F700C000009A
S11306308BB3877F8BBBEFECF7E03197F1F700C00A
S1130640000008958AB38E608ABB8AB3806F8ABB28
S113065082E00E94D60288E20E94D6028CE00E94C8
S1130660D60281E00E94D60208959BB392609BBBA0
S11306709BB39B7F9BBBEFECF7E03197F1F700C096
S113068000009BB398609BBBEFECF7E03197F1F768
S113069000C000009BB39F70282F207F922B9BBB30
S11306A0EFECF7E03197F1F700C000009BB3977FC0
S11306B09BBBEFECF7E03197F1F700C000009BB370
S11306C098609BBBEFECF7E03197F1F700C00000B6
S11306D02BB3F0E18F9FC0011124922F9F70892BBF
S11306E08BBB8FEC97E00197F1F700C000008BB350
S11306F0877F8BBBEFECF7E03197F1F700C0000088
S113070008950F931F93CF938C01C0E003C00E9400
S11307103503CF5FF801EC0FF11D80818111F7CF14
S1130720CF911F910F910895813039F058F08230A4
S113073031F0833031F060E005C0605C03C0605F7D
S113074001C0605B862F80680E94D6020895CF9313
S1130750DF93EA010E949403CE010E948103DF919A
S1130760CF910895CF93DF93CDB7DEB760970FB6DF
S1130770F894DEBF0FBECDBFDC01CB014AE0BE0161
S11307806F5F7F4F0E94860ACE0101960E9481030B
S113079060960FB6F894DEBF0FBECDBFDF91CF9148
S11307A0089581E00E94D60208950E949C000E9450
S11307B0B800FDCF6295660F660F607C97B19F739A
S11307C0692B67B9877096B1987F892B86B986B1F2
S11307D0806886B908958F7197B1907E892B87B907
S11307E086B1806486B93699FECF84B195B10895F7
S11307F0DC01FB018181813041F4808111969C915F
S11308001197892B11968C9308958281813021F45C
S113081080819C91892B8C939081909511968C91D9
S11308201197982311969C930895442329F0FC0171
S11308302281622B628308956095FC0122816223E8
S113084062830895FC019281292F262329F0622FC7
S11308506095692362830895692B62830895CF921A
S1130860DF92EF92FF920F931F93CF93DF938C014C
S1130870C62F009709F48BC0FC018085811108C044
S1130880962F64E670E00E94220A6CBF80E082C06A
S1130890823049F4962F80E064E670E00E94220AD8
S11308A063BD80E077C0813009F073C08FEF9FE0B3
S11308B097BD86BDF80186818F3FB9F5808191810E
S11308C0A281B381BC01CD017F70882799270F2EA7
S11308D0F4E6CF2ED12CE12CF12CF02DA7019601BA
S11308E00E94360AD0E0C29FC001C39F900DD29FE0
S11308F0900D11249BBD8ABDF80180819181A28154
S1130900B381BC01CD017F7088279927A701960187
S11309100E94360AC29FC001C39F900DD29F900DC2
S1130920112499BD88BD80E035C08430C1F4F8013C
S113093080819181A281B3819C01AD013F704427E4
S11309405527A62FB0E00E94580A24E630E040E084
S113095050E00E94360A39BD28BD80E01BC0F80172
S113096080819181A281B3819C01AD013F704427B4
S11309705527A62FB0E00E94580A24E630E040E054
S113098050E00E94360A3BBD2ABD80E003C081E0EE
S113099001C080E0DF91CF911F910F91FF90EF9004
S11309A0DF90CF900895009729F1FC012085211153
S11309B009C023B7287F23BF23B78781822B83BF36
S11309C080E00895223051F425B5287F25BD25B552
S11309D0FC018781822B85BD80E00895213061F47C
S11309E02EB5287F2EBD2EB5FC018781822B8EBDAE
S11309F080E0089581E0089582E00895811107C0A0
S1130A0083B7887F83BF83B783BF80E00895823034
S1130A1039F485B5887F85BD85B585BD80E00895A9
S1130A20813039F48EB5887F8EBD8EB58EBD80E061
S1130A30089582E00895FC01892B09F498C080850B
S1130A40813009F06DC080819181A281B38194FFCE
S1130A5033C0AA27BB278F3F20E19207A105B10528
S1130A6029F481E08FBD88E08EBD1FC08F3F21E156
S1130A709207A105B10529F482E08FBD88E08EBDFF
S1130A8014C08F3F23E19207A105B10529F483E047
S1130A908FBD88E08EBD09C08F3F9F41A105B10580
S1130AA021F482E08FBD88E18EBD8185882389F0A1
S1130AB099B7892B89BF0DC095FF05C082E08FBD12
S1130AC080E18EBD06C096FF04C081E08FBD80E149
S1130AD08EBD26812F3FC1F42FB59481892F90E0DC
S1130AE0AC0100245695479507945695479507946D
S1130AF0542F402D82959295907F9827807F982738
S1130B00842B822B8FBD2BC03FB59481892F90E01D
S1130B1002C0880F991F2A95E2F7832B8FBD1FC04F
S1130B20882311F0823029F581110CC083B78778AE
S1130B3083BF93B724818281822B892B83BF8581D4
S1130B408CBF0DC0823059F485B5877885BD95B5C5
S1130B5024818281822B892B85BD858183BD8185FA
S1130B60882349F099B7892B89BF80E0089581E0F3
S1130B70089582E0089580E008956115710509F4EF
S1130B8045C08830E9F138F4823081F0843061F175
S1130B908130F1F511C0803209F118F4803151F13E
S1130BA037C08034A9F0803869F032C07093AD004A
S1130BB06093AC0080E008957093AB006093AA004A
S1130BC080E008957093A9006093A80080E00895E0
S1130BD07093A7006093A60080E008957093A50029
S1130BE06093A40080E0089570939F0060939E003A
S1130BF080E008957093A3006093A20080E00895BC
S1130C007093A1006093A00080E0089581E00895AE
S1130C1082E008951F920F920FB60F9211242F9322
S1130C203F934F935F936F937F938F939F93AF9370
S1130C30BF93EF93FF93E091A400F091A500099571
S1130C40FF91EF91BF91AF919F918F917F916F91A0
S1130C505F914F913F912F910F900FBE0F901F9076
S1130C6018951F920F920FB60F9211242F933F9352
S1130C704F935F936F937F938F939F93AF93BF93A0
S1130C80EF93FF93E091A200F091A3000995FF91E7
S1130C90EF91BF91AF919F918F917F916F915F91F0
S1130CA04F913F912F910F900FBE0F901F90189569
S1130CB0E091A000F091A10009950895E0919E00B3
S1130CC0F0919F00099508951F920F920FB60F920D
S1130CD011242F933F934F935F936F937F938F933D
S1130CE09F93AF93BF93EF93FF93E091AC00F09188
S1130CF0AD000995FF91EF91BF91AF919F918F91B5
S1130D007F916F915F914F913F912F910F900FBE03
S1130D100F901F9018951F920F920FB60F921124E7
S1130D202F933F934F935F936F937F938F939F93EF
S1130D30AF93BF93EF93FF93E091AA00F091AB00C0
S1130D400995FF91EF91BF91AF919F918F917F9101
S1130D506F915F914F913F912F910F900FBE0F9024
S1130D601F9018951F920F920FB60F9211242F9374
S1130D703F934F935F936F937F938F939F93AF931F
S1130D80BF93EF93FF93E091A800F091A900099518
S1130D90FF91EF91BF91AF919F918F917F916F914F
S1130DA05F914F913F912F910F900FBE0F901F9025
S1130DB018951F920F920FB60F9211242F933F9301
S1130DC04F935F936F937F938F939F93AF93BF934F
S1130DD0EF93FF93E091A600F091A7000995FF918E
S1130DE0EF91BF91AF919F918F917F916F915F919F
S1130DF04F913F912F910F900FBE0F901F90189518
S1130E008091B300882319F18091B000811110C042
S1130E1040E06091BB008091B5009091B6000E94C3
S1130E2015048091B30083BD81E08093B0000895E0
S1130E3041E06091BB008091B5009091B6000E94A2
S1130E4015048091B300809583BD1092B00008957D
S1130E508091B400882319F18091AE00811110C0F3
S1130E6040E06091C1008091B9009091BA000E9465
S1130E7015048091B4008CBF81E08093AE00089586
S1130E8041E06091C1008091B9009091BA000E9444
S1130E9015048091B40080958CBF1092AE00089523
S1130EA08091AF0081110EC02091B1003091B20049
S1130EB08FEF9FE0821B930B9BBD8ABD81E08093E3
S1130EC0AF0008C08091B1009091B2009BBD8ABD73
S1130ED01092AF008091B1009091B200892B41F043
S1130EE06091BE008091B7009091B8000E942204E6
S1130EF00895FF920F931F93CF93DF9341155105EC
S1130F0009F45EC0EA01F62E8C018FEF9FE0A8E0A1
S1130F10B0E088839983AA83BB83CA010E941B051E
S1130F20988591111AC0E1ECF0E081E08183F082B0
S1130F301282BF01C8010E94F8031093BA00009303
S1130F40B90068E277E081E00E94BD0568E277E0DD
S1130F5089850E94BD0580E036C09130A9F4EEEB8E
S1130F60F0E081E08183F0821282BF01C8010E9417
S1130F70F8031093B8000093B70060E577E0898523
S1130F800E94BD0580E01FC09230E1F4EBEBF0E07D
S1130F9081E08183F0821282BF01C8010E94F803BC
S1130FA01093B6000093B50060E077E080E40E94FF
S1130FB0BD0560E077E089850E94BD0580E003C03F
S1130FC081E001C082E0DF91CF911F910F91FF90EA
S1130FD00895009721F00E94D30480E0089581E0F1
S1130FE008958F929F92AF92BF92CF92DF92EF9229
S1130FF0FF921F93CF93DF936115710509F471C0BC
S1131000EB01182F88850E94FE0481116CC0612FAA
S1131010CE010E942F04811168C0CE010E94D30426
S1131020811165C08885813041F588819981AA81C3
S1131030BB814C015D012FE09222AA24BB24612FC5
S113104070E080E090E00E94290920E030E048EC64
S113105052E40E94B5096B017C01C501B4010E94F0
S11310602709A70196010E9486080E94F808709338
S1131070B2006093B10080E03DC0811118C0612FBF
S113108070E080E090E00E94290920E030E048EC24
S113109052E40E94860820E030E040E853E40E94D5
S11310A0B5090E94F8086093B40080E023C0823040
S11310B001F5612F70E080E090E00E94290920E0B2
S11310C030E048EC52E40E94860820E030E040E83A
S11310D053E40E94B5090E94F8086093B30080E0CD
S11310E009C081E007C082E005C082E003C082E05D
S11310F001C082E0DF91CF911F91FF90EF90DF90CC
S1131100CF90BF90AF909F908F9008950E949A08BF
S11311100C947B090E94740958F00E946D0940F0F8
S113112029F45F3F29F00C94640951110C94AF0920
S11311300C946A090E948C0968F39923B1F355232E
S113114091F3951B550BBB27AA27621773078407D6
S113115038F09F5F5F4F220F331F441FAA1FA9F36C
S113116035D00E2E3AF0E0E832D091505040E6955A
S1131170001CCAF72BD0FE2F29D0660F771F881FBB
S1131180BB1F261737074807AB07B0E809F0BB0BAE
S1131190802DBF01FF2793585F4F3AF09E3F5105C2
S11311A078F00C9464090C94AF095F3FE4F3983E23
S11311B0D4F3869577956795B795F7959F5FC9F7AB
S11311C0880F911D9695879597F90895E1E0660F2C
S11311D0771F881FBB1F621773078407BA0720F0A5
S11311E0621B730B840BBA0BEE1F88F7E09508950E
S11311F00E94940988F09F5798F0B92F9927B75106
S1131200B0F0E1F0660F771F881F991F1AF0BA95A6
S1131210C9F714C0B13091F00E94AE09B1E008954D
S11312200C94AE09672F782F8827B85F39F0B93F3F
S1131230CCF3869577956795B395D9F73EF4909559
S11312408095709561957F4F8F4F9F4F0895E894D7
S113125009C097FB3EF490958095709561957F4FFA
S11312608F4F9F4F9923A9F0F92F96E9BB279395A8
S1131270F695879577956795B795F111F8CFFAF4B8
S1131280BB0F11F460FF1BC06F5F7F4F8F4F9F4FE9
S113129016C0882311F096E911C0772321F09EE847
S11312A0872F762F05C0662371F096E8862F70E0AD
S11312B060E02AF09A95660F771F881FDAF7880F87
S11312C09695879597F9089597F99F6780E870E058
S11312D060E008959FEF80EC089500240A941616A8
S11312E0170618060906089500240A941216130610
S11312F0140605060895092E0394000C11F488239E
S113130052F0BB0F40F4BF2B11F460FF04C06F5FB9
S11313107F4F8F4F9F4F089557FD9058440F551F8F
S113132059F05F3F71F04795880F97FB991F61F063
S11313309F3F79F087950895121613061406551FDA
S1131340F2CF4695F1DF08C0161617061806991F46
S1131350F1CF86957105610508940895E894BB273B
S113136066277727CB0197F908950E94C8090C9442
S11313707B090E946D0938F00E94740920F09523BE
S113138011F00C9464090C946A0911240C94AF09AB
S11313900E948C0970F3959FC1F3950F50E0551F7F
S11313A0629FF001729FBB27F00DB11D639FAA27B6
S11313B0F00DB11DAA1F649F6627B00DA11D661F05
S11313C0829F2227B00DA11D621F739FB00DA11D26
S11313D0621F839FA00D611D221F749F3327A00DE0
S11313E0611D231F849F600D211D822F762F6A2F7C
S11313F011249F5750409AF0F1F088234AF0EE0FE1
S1131400FF1FBB1F661F771F881F91505040A9F70D
S11314109E3F510580F00C9464090C94AF095F3F22
S1131420E4F3983ED4F3869577956795B795F79549
S1131430E7959F5FC1F7FE2B880F911D96958795C1
S113144097F9089597FB072E16F4009407D077FDBB
S113145009D00E94630A07FC05D03EF4909581955B
S11314609F4F0895709561957F4F0895A1E21A2EBC
S1131470AA1BBB1BFD010DC0AA1FBB1FEE1FFF1F34
S1131480A217B307E407F50720F0A21BB30BE40B84
S1131490F50B661F771F881F991F1A9469F76095CB
S11314A07095809590959B01AC01BD01CF01089585
S11314B00E94770AA59F900DB49F900DA49F800D64
S11314C0911D11240895AA1BBB1B51E107C0AA1F3B
S11314D0BB1FA617B70710F0A61BB70B881F991FD1
S11314E05A95A9F780959095BC01CD010895A29FC6
S11314F0B001B39FC001A39F700D811D1124911DE4
S1131500B29F700D811D1124911D0895BB274A308F
S113151031F4992322F4BDE2909581959F4F0C9468
S1131520920ABB27FB015527AA27880F991FAA1FD8
S1131530A41710F0A41B83955051B9F7A05DAA33EA
S113154008F0A95DA193009779F7B111B1931192B5
S1131550CB010C94AB0ADC01FC01672F719177235A
S1131560E1F7329704C07C916D9370836291AE175A
S10D1570BF07C8F30895F894FFCFF5
S113157A01040000000000000007028054454D5099
S113158A005345540057656C636F6D6500436F6E75
S113159A6669670020003939004E4F524D414C00AC
S10F15AA30003000040830003000202025
S9030000FC
